:4000000000800020110000004D0400004D04000008B5044B1A6803F53F5302331A6000F035FA00BFFA46004010B5054C237833B9044B13B10448AFF300800123237010BDA6
:400040006881FF1F00000000E03A0000084B10B51BB108490848AFF300800848036803B910BD074B002BFBD0BDE81040184700BF000000006C81FF1FE03A0000C880FF1F8E
:400080000000000030B5B3B062B601F01FF800F0C5FC00F069FB02F099FB00F0F5FC0121002001F08DFA01F025F8002001F02AF801F040F801F066F8054644001E4B83FB83
:4000C0000423A3EBE4740021084600F05BFB1B4800F0F0FA0721002000F054FBA0B200F06FFB01F0A5FA90B122461549684602F017FC684601F05EFB124802F0F9FB2A46DC
:40010000114919A802F00CFC19A801F053FB0021012000F037FB0D4800F0CCFA0421012000F030FBA8B200F04BFB642000F07CFB012000F0CDFAB6E756555555E43A000077
:40014000F03A0000003B0000043B0000103B0000FEE700BFF0B40022174611E050F82760F3B226F0FF0608E001EB420511F812406D78A5550132013BDBB2002BF4D10137D0
:400180001C2FEBD9F0BC7047134B1B78DBB203F00701124A11701B09013213708322104B1A70102203F613131A7020210433197040230C490B7070310A700B4A137080226F
:4001C0000A4B1A7040F2011242331A804422A3F534731A70704700BFCF0100496E5800400D510040285A0040005B0040045B004008B50A46002102F072FB08BD08B502F06D
:4002000063FB08BD38B500242E4B1C80502202331A70192502331D80182202331A70042229492A48FFF7EAFF0622294B1A705222A3F580731A70274B1B78DBB2264A13701E
:400240004FF4E162254B1A8041F25122023B1A800CE0234B1B7803F0010343EA440404F003044FF4F07002F0C3FA013D0DB1032CEFD115B90320FFF76BFF1A4A4FF48073F5
:40028000138007231370002317490B704820023108701370053213700222144B1A7004220A331A70124A137843F003031370013A137843F001031370013A137843F0800317
:4002C000137038BD804000409C04004800410040004300400F010049A14600402242004025420040044000400640004001400040A243004038B572B63D4A137843F00403BE
:40030000137000240CE03B4D630019194A0011462A44084691882858FFF76AFF0134E4B2062CF0D900240BE03249A3001819420088188022016BC06AFFF760FF0134E4B25A
:40034000002CF1D02C494FF09040FFF703FF0A252A4B1D702A4A137843F0020313701032137843F002031370264C237843F040032370A2F58632513A137843F0100313705D
:40038000082221492148FFF739FF082220492148FFF734FF2A4620492048FFF72FFF08221F492048FFF72AFF08221F491F48FFF725FF08221E491F48FFF720FF2A461E4978
:4003C0001E48FFF71BFF1E4A137843F0080313701C4D61232B70FFF715FF81232B70FFF7D3FE0E2221461848FFF708FF38BD00BFE8460040183B00007400004883580040FB
:4004000003500140A04300405C0400480251004064040048C25100406C040048F0510040780400481251004080040048225100408804004832510040900400484051004064
:400440002243004000480040B043004008B502F00FFA03680C2B00D1FEE7FEE708B5094B1A681044084BC31A802B02DC054B186005E002F0FDF90C2303604FF0FF3210469A
:4004800008BD00BFCC80FF1F9082FF1F08B5104E104D16E029686B68AC68002204E051F8040B43F8040B0432A242F8D1E868002203E0002143F8041B04328242F9D11035D4
:4004C000013E002EE6D102F0D9F9FFF7DBFDFEE701000000983D000008B5104A104B1A60104A136843F40073136000230AE0032B03D80D4A52F8231000E00C490C4A42F8FE
:40050000231001332F2BF2D90A4B1A780A4B1A70074A0A4B1A60FFF7EDFE08BD0004FA050CED00E014ED00E0000000004D0400000080FF1FBC760040C080FF1F08ED00E052
:4005400010B50B4C237803F09F032370237803F0F00323702378184340F010002070012000F078F9237803F0EF03237010BD00BF2051004038B505460E4C237843F020036D
:400580002370237803F0BF032370002000F062F9237803F0F003237023781D4345F010052570012000F056F9237803F0EF03237038BD00BF2051004070B5354B1A7802F06B
:4005C0008002D2B21A7033490A7802F0F00242F00F020A7001310A7802F0F0020A7001310A7802F0F0020A701A7802F0DF021A701A7842F040021A704FF4CA76002000F096
:4006000029F9234D2B7843F010032B70012000F021F9214B1C78E4B22B7803F0EF032B70002000F017F904F00804E4B22B7843F010032B70012000F00DF92B7803F0EF03E7
:400640002B7014B90A2000F005F9013E0CB1002ED4D10F4A137803F0BF031370137803F08003DBB213700232137803F0F00313700132137803F0F00343F00F031370013237
:40068000137803F0F00343F00F03137070BD00BF20510040225100402151004010B50446FFF78AFF2009FFF765FF04F00F00FFF761FF10BD38B505460078012404E0FFF719
:4006C000EDFF285D0134E4B20028F8D138BD00BF10B50446FFF770FF2009FFF731FF04F00F00FFF72DFF10BD08B5282000F09CF80320FFF725FF052000F096F80320FFF7E2
:400700001FFF0F2000F090F80320FFF719FF012000F08AF80220FFF713FF052000F084F80620FFF7D5FF0E20FFF7D2FF2C20FFF7CFFF0820FFF7CCFF0120FFF7C9FF0C208C
:40074000FFF7C6FF0320FFF7C3FF052000F06CF808BD00BF08B50C20FFF7BAFF0122014B1A7008BD8481FF1F08B5054B5B7823B9FFF7BAFF0122024B5A70FFF7EBFF08BD23
:400780008481FF1F08B5032819D8DFE800F002070D1381F08000FFF79BFF08BDA1F14000C0B2FFF795FF08BDA1F16C00C0B2FFF78FFF08BDA1F12C00C0B2FFF789FF08BD58
:4007C00010B584B000238DF80E30092211E0144BA3FB0013DB081C4603EB83035900431ADBB2303304A9114401F80C3C2046013AD2B20928EBD80A4BA3FB0013DB0803EB5C
:4008000083035900431ADBB2303304A9114401F80C3C01AB9818FFF74DFF04B010BD00BFCDCCCCCC01BE704710B5044605E0084B186801F0DDFFA4F50044B4F5004FF6D88D
:40084000034B586800FB04F001F0D2FF10BD00BFD080FF1F08B5034B1B7A00FB03F001F0C7FF08BDD080FF1F70B504460E46074B1D681F2802D90020FFF7D4FF04F01F048B
:40088000103455F8240045F8246070BD08ED00E038B504460D46072902D90020FFF7C2FF1F2C02D90020FFF7BDFF04F01F0000F1604000F564406D01EDB2057038BD00BFE9
:4008C000134B1B78DBB20360124A127843EA02230360114A127843EA024303600F4A127843EA026303600E4B1B78DBB243600D4A127843EA022343600B4A127843EA0243A7
:4009000043600A4A127843EA02634360704700BF0301004904010049EC4600400201004901010049000100490501004906010049084A137843F0040313701032137843F064
:400940000403137002F5A5521E32137843F0800313707047A9430040044A137803F0FC0300F0030018431070704700BF0958004010B487B00446194B03AA1868596803C2FC
:40098000197A11706A4653F80C0F596803C21B7A1370082C1ED812490B7803F08003DBB20B70087806AB1C4414F80C3C14F8182C920002F00C02134303430B70094A13782D
:4009C00003F0F3031370117814F8183C0B4343F00C03137007B010BC704700BF503B00000A5800400958004008B50C22084B1A70084A137843F0200313700022064B1A704D
:400A00000320FFF7B5FF0120FFF7A6FF08BD00BF08580040095800400A58004008B5054B1B7823B9FFF7E0FF0122024B1A70FFF77FFF08BD8681FF1F084A137843F06003AA
:400A40001370A2F5A652133A137843F0080313701032137843F008031370704777580040054B1A7802F0FC021A701A7800F0030010431870704700BF5E58004008B5002072
:400A8000FFF7EEFF08BD00BF08B5054B1B7823B90122034B1A70FFF7F1FFFFF7CDFF08BD8781FF1F38B59DF81040651EEDB2032D51D8013809282ED8DFE800F0052D2D05ED
:400AC0002D2D0F192D230F2B03D92548007840B222E02448007840B21EE00F2B03D92248007840B218E02148007840B214E00F2B03D91F48007840B20EE01E48007840B213
:400B00000AE00F2B03D91C48007840B204E01B48007840B200E0002001EB401101FB02F2D20B91B20D2B0BD8C3F10E0192B20A4191B2621E124800EB82020133937005E0D4
:400B4000631E0F4A02EB83030F229A70013C0C4B23F8241038BD0020FFF764FE38BD00BF180100491C010049190100491D0100491A0100491E0100491B0100491F010049BD
:400B80008881FF1FF8B5074601F03AFE06460D4D2B7843F003032B700B4C237843F0030323700A4B1F700320FFF754FE2B7803F0FC032B70237803F0FC032370304601F00A
:400BC00023FEF8BDF8460040F946004092580040F8B504460022BB4B1A74012859D13822B94B1A70042202331A70072201331A70002501331D7001331D703F2201331A707E
:400C000002331D7001331D7001331D7001260A331E70502203F527631A70FF2201331A70192201331A70202201331A70442003331870013318701223A44A1370022102324D
:400C40001170013213702822A14B1A70EB2201331A70FFF797FF58229E4B1A7001331D7005200533187001331E7001331D700A2201331A704FF47A32974B1A60314600F074
:400C8000B3FA3146252000F033FB94491D20FFF7EBFD022C5AD138228B4B1A70042202331A70072201331A70002501331D7001331D703F2201331A7002331D7001331D708D
:400CC00001331D7001260A331E70502203F527631A70272201331A702C2201331A7001331D70552203331A705A2201331A70052701331F7002331E70112201331A701922A0
:400D000001331A70972201331A704420FFF73AFF5822704B1A7001331D7005331F7001331E7001331D700A2201331A704FF4FA42694B1A603146384600F056FA3146252099
:400D400000F0D6FA66491D20FFF78EFD032C5AD138225D4B1A70042202331A70072201331A70002501331D7001331D703F2201331A7002331D7001331D7001331D70012663
:400D80000A331E70502203F527631A70272201331A702C2201331A7001331D70552203331A705A2201331A70052701331F7002331E70112201331A70192201331A70972250
:400DC00001331A704420FFF7DDFE5822414B1A7001331D7005331F7001331E7001331D700A2201331A704FF4FA423B4B1A603146384600F0F9F93146252000F079FA394984
:400E00001D20FFF731FD042C5AD138222E4B1A70042202331A70072201331A70002401331C7001331C703F2201331A7002331C7001331C7001331C7001250A331D70502267
:400E400003F527631A70272201331A702C2201331A7001331C70552203331A705A2201331A70052601331E7002331D70112201331A70192201331A70972201331A704420AE
:400E8000FFF780FE5822134B1A7001331C7005331E7001331D7001331C700A2201331A704FF4FA420C4B1A602946304600F09CF92946252000F01CFA0B491D20FFF7D4FCA0
:400EC000F8BD00BF8881FF1F004E00408C5800409058004094580040B081FF1FA9110000AD110000B1110000B51100002DE9F04182B0394E4FF0010886F80080374F002412
:400F00007C74102000F05EF9102000F0DFF907211D20FFF7BDFC0425314B1D7001331C7007331C702F4A137843F0180313702E4B1C7003F2F5231C7001331C700A22A3F292
:400F400009331A7001331C7002331C705B2205331A705E2201331A7004331C701422A3F68C231A70CDF8008010234FF4004249F252110920FFF796FD0223009310234FF467
:400F8000004249F2DA012846FFF78CFD0323009310234FF4004249F2DA012846FFF782FD009510234FF4004249F2DA012846FFF779FD3378013B07EB83039A780B4B1A70F4
:400FC0003378013B37F82320094B1A803078FFF7FFFD02B0BDE8F081E080FF1F8881FF1F96580040075B0040935800400E4E00400C4E004070B501F003FC06462A4B1B7809
:401000002A4B1A7842F001021A701A7842F010021A7010331A7842F001021A701A7842F010021A70224D2B7843F002032B70214C237843F0020323701F4A137843F00303B1
:4010400013700320FFF706FC2B7803F0FD032B70237803F0FD032370184A137843F0060313707A22164B1A70164A137843F0010313701032137843F0010313700F3A13784D
:4010800043F0010313701032137843F0010313704FF000530C4A1360A2F5C0721360304601F0B2FB70BD00BFE080FF1FAA430040F8460040F9460040915800407758004078
:4010C00082580040A143004080E200E008B5084B9B7C4BB9064BDB7C13F0FF0F01D1FFF705FF0122024B9A74FFF784FF08BD00BF8881FF1F024A137843F0010313707047D6
:40110000004E0040094B1B7C13F0FF0F03D0074B5B7CDBB203E0064B1B7803F00103012B01D00028EED01846704700BF8881FF1F014E00400E4B1B7803F00303012B03D885
:401140000C4B188880B209E00A4A12780A49087842EA0020032B01D1084B1B78084B1B7C13F0FF0F02D00022054B5A7400B27047144E0040104E0040114E0040124E004085
:401180008881FF1F064B5B69C01A4FF47A7303FB00F0044B1B6890FBF3F000B2704700BF8881FF1FB081FF1F704700BF704700BF704700BF704700BF014B188880B2704770
:4011C00080400040034B1A7800F0F80010431870704700BF82400040024B187800F00700704700BF8240004070B505460E46FFF7F3FF0446FFF7E0FFA84256D02B4B1B78A4
:4012000003F0010294B900B185B938B9284B1D80284A137803F0BF03137070BD254A137843F040031370224B1D8070BD22B3002321490B7001240F310C7004310B700C393C
:401240000B7803F07F030B701A4B1B7813F0080F00D08DB9194B18800721013B1970164B1B7813F0010FFAD110490B7803F0FE030B700021104B19700C4B1B7813F0010FCB
:401280000DD00E4B1D800EB1032200E001220A4B1A70094B1B7813F0010FFAD170BD044B1D8002490B7813430B7070BDA243004080400040824000400140004002400040C1
:4012C000014B188880B2704700410040034B1A7800F0F80010431870704700BF02410040024B187800F00700704700BF0241004070B505460E46FFF7F3FF0446FFF7E0FF64
:40130000A84256D02B4B1B7803F0010294B900B185B938B9284B1D80284A137803F0BF03137070BD254A137843F040031370224B1D8070BD22B3002321490B70012413318F
:401340000C7004390B7008390B7803F07F030B701A4B1B7813F0080F00D08DB9194B18800721013B1970164B1B7813F0010FFAD110490B7803F0FE030B700021104B197052
:401380000C4B1B7813F0010F0DD00E4B1D800EB1032200E001220A4B1A70094B1B7813F0010FFAD170BD044B1D8002490B7813430B7070BDA14300400041004002410040C5
:4013C0000140004002400040F8B501F019FA0746404A137843F0010313701032137843F00103137001263C4B1E700225943B1D7002F5E2521B32137803F07F0313700020BC
:40140000FFF728FA354C237803F0F9032370344A137803F0DF0313702378334323703046FFF718FA2820FFF715FA2E4B1A7802F07F021A701A7802F0BF021A7023782B4346
:4014400023702846FFF706FA237843F0040323700024254B1C7001331C70384601F0D4F907211720FFF714FA20491720FFF7FCF907211820FFF70CFA1D491820FFF7F4F926
:4014800007211520FFF704FA1A491520FFF7ECF907212046FFF7FCF917492046FFF7E4F907213046FFF7F4F914493046FFF7DCF907212846FFF7ECF911492846FFF7D4F93B
:4014C00007210C20FFF7E4F90E490C20FFF7CCF9F8BD00BFA54300409D6000409443004012600040F851004084600040BD1D0000A51B0000B91D0000191D0000491D00002C
:401500007D1D0000C51D000008B5214B18700023204A1370204A1370204A1370204A1370204A1370204A1370204A1370204B4FF400021A604FF080721A604FF400121A603C
:4015400001221A6002221A6004221A6011B1012906D00BE0174A137803F0FE0313700AE0144A137843F00103137004E0114A137843F00103137003220F4B1A708022203B69
:401580001A70012001F034F904220C4B1A7008BDCD81FF1FD081FF1FEC81FF1FEF81FF1FE481FF1FEE81FF1FF181FF1FCC81FF1F00E100E0096000402860004012600040B3
:4015C00038B504460D46064B1B7823B9FFF7FCFE0122034B1A7029462046FFF795FF38BDA081FF1F00230A4A13700A4A13700A4A13700A4A13700A4A13700A4A13700A4AA2
:4016000013700322094B1A708022203B1A707047D081FF1FEC81FF1FEF81FF1FE481FF1FEE81FF1FF181FF1FCC81FF1F28600040014B1878704700BFEF81FF1F431EDBB2BD
:40164000072B3CD8F0B4074600EB4004A3001C4C2344DB889BB2C3F500739A4208D900EB400293002344DA8892B2C2F5007292B200EB4004A300124C2344DB7843EA122374
:40168000104D04012E192B55D3B2737039B909E0CE5C3D010C4C665501339BB200E000239A42F5D8420002449300054A134400225A705A79D2B20001044B1A54F0BC7047F1
:4016C000F481FF1FFC5F004078600040FE5F00400246002001E0013080B2135C002BFAD1704700BF10B4FF2400230EE0094AD25C02EB42029100084A11448A7AD2B2824252
:4017000001D11C4602230133DBB2012BEED9204610BC7047BC81FF1FF481FF1F10B5204C2079FFF7DFFF237813F0800F0ED06378DBB2212B2FD11B4B07221A80C0EBC000D4
:40174000194A1044586000F09BFA10BD144B5B78DBB2202B02D0222B10D01EE0114A07231380C0EBC00310490B4453600F4A135C43F00103135400F0ABFA10BD084B9B7892
:401780000B4A22F81030094A135C43F00203135400F034F910BD002010BD002010BD00BF00600040D881FF1FE480FF1FB481FF1FC881FF1F2DE9F8438046234B1B78234ABE
:4017C000D65CF6B2FFF784FF05460027344606EB460293001E4A13441B899BB29D4209D906EB460293001A4A1344B3F808901FFA89F900E0A9464A4608EB07013046FFF742
:401800001DFFC9EB0505ADB245B906EB460293000F4A13441B899BB2994510D14F44BFB204EB440293000A4A13445B7813F0FF0FF6D025B9002211463046FFF7FFFE002D37
:40184000C4D1BDE8F88300BFA181FF1FB881FF1FF481FF1FC37803F0030390F9020000280FDA032B06D002F001030B48C15442F001020EE0C2F380030848C15442F00402A0
:4018800007E0032B05D0C2F340030548C15442F002021046704700BFB881FF1FBC81FF1FC081FF1F1D4B19781D4A13889BB20B449BB2138000220FE01A494B681B78DBB213
:4018C000194883544B6801334B600132D2B20B889BB2013B9BB20B80124B1B889BB20BB1072AE9D90D4B1B78DBB2082B00D05AB10E490B7883F080030B700F210C4B197096
:4019000002210C4B197004E0022309490B7009490B70094B1A70014B1A707047CC81FF1FCE81FF1FD881FF1F006000406282FF1FED81FF1FD081FF1FF081FF1F0222074BA5
:401940001A708022064B1A700F22064B1A700023054A1370054A137001207047D081FF1F6282FF1FED81FF1FCC81FF1FF081FF1F08B5FFF797FF08BD10B4194B197801F006
:401980000F010239C9B2174A13889BB20B449BB21380002011E0144A5468144B1B5CDBB223705368013353600130C0B20139C9B213889BB2013B9BB213800B4B1B889BB284
:4019C0000BB10029E7D10A4B19700A4A137883F0800313700B22084B1A7010BC704700BF29600040CE81FF1FD881FF1F00600040F081FF1F6282FF1FED81FF1F0623064AE5
:401A00001370064A13708022054B1A700022054B1A700120704700BFD081FF1FED81FF1F6282FF1FF081FF1F064B9B6843B1054B9A6810709A6804490988518000229A60CE
:401A4000704700BFD881FF1FCE81FF1F08B5134B1A78D2B21A701B78DBB213F0800F02D00F4A137008BD0220FFF7DEFF0D4B1B7803F06003202B05D0402B06D043B900F0A9
:401A800093FC06E000F0C4FE03E000F037FE00E0002010B90322024B1A7008BD28600040ED81FF1F0060004008B5094B1978094A13889BB20B449BB213800022064B1A7070
:401AC0000120FFF7B1FF0322044B1A7008BD00BFCC81FF1FCE81FF1FD081FF1FED81FF1F08B50B4B1B78DBB2042B06D0062B07D0022B0BD1FFF7D8FF08BDFFF73DFF08BDF8
:401B00000320FFF791FF0322024B1A7008BD00BFD081FF1FED81FF1F08B50022044B1A700120FFF781FF0322024B1A7008BD00BFD081FF1FED81FF1F08B50B4B1B7813F00E
:401B4000FF0F07D0084A137843F0800307490B70002313700022064B1A700120FFF764FF0322044B1A7008BDEE81FF1F08600040D081FF1FED81FF1F08B5094B1B78DBB2E1
:401B8000042B06D0062B07D0022B07D1FFF7F0FE08BDFFF7C1FF08BDFFF7CEFF08BD00BFD081FF1F08B5284B1B78DBB213F0100F48D013F0800F0CD003F00F03012B16D129
:401BC000FFF744FF214B1B7813F0800F11D1012312E013F0400F03D0FFF7CEFF01230BE013F0200F07D0FFF77BFF012304E0002302E0002300E0002323B3134B1B7813F0B6
:401C0000800F1FD1124B1B78124A12781343124A13701278D2B2934214D10C4B1B78DBB2094A127812F0800F07D1084B1B78DBB2054A1370137803F00F03044A1278D2B264
:401C40009342EAD108BD00BF28600040ED81FF1F6282FF1FF081FF1F296000400022064B1A80064B9B682BB1044A916800230B7092685380704700BFCE81FF1FD881FF1F59
:401C800008B50F4B1B889BB213B9FFF757FE15E002220C4B1A7000220B4B1A70FFF7DEFF0A4AD179937943EA0123054A128892B2934201D2024A1380FFF7F4FD012008BDBB
:401CC000D881FF1FD081FF1F6282FF1F0060004008B504220B4B1A7080220B4B1A70FFF7BDFF0A4AD179937943EA0123084A128892B2934201D2064A13800B22054B1A70A8
:401D0000012008BDD081FF1F6282FF1F00600040D881FF1FED81FF1F0122094B1A700F3B9B7C084B1B7B03F00303934204D0054AD37B83F08003D3730122024B5A737047EF
:401D40000B600040F481FF1F02220A4B1A700F3B93F82230084B1B7E03F00303012B04D0054AD37E83F08003D3760122024B5A76704700BF0B600040F481FF1F04220C4BC6
:401D80001A700F3B93F832300A4B93F8243003F00303012B06D0074A92F8273083F0800382F827300122034B83F82520704700BF0B600040F481FF1F704700BF08B5FFF72C
:401DC00011FC08BD08B500F0A5FC08BD70B588B0054603AC174E0FCE0FC43368237035B322232B7003236B7001A8FEF769FD002402231AE008AA224412F81C2C08A901EB4D
:401E0000121111F8141CE954581C00212954981C02F00F0208AE324412F8142C2A54DA1CA9540134E4B20433DBB2212BE2D908B070BD00BF683B000010B401233EE0194617
:401E40001A010C242148845403EB4300820020480244527912F0FF0F13D003EB430082001B480244127912F0800F04D01801194A024494700AE01801164A024408209070D4
:401E800004E01801134A0244802090704800084482000F480244D488E4B208010B4901448C71D088C0F30720C871D088C0B20871D288C2F307224A710133DBB2082BBED972
:401EC000FF22054B1A7010BC704700BF70600040F481FF1FFC5F00400A600040074B1A78074B03EBC2035B681A7C824204D9C000103018444068704700207047CD81FF1FDC
:401F00007C3B0000F8B5404B1B7813F0FF0F79D03D4B18780138C0B2FFF7E0FF047AC2683A4B1878C0B200236AE01178884264D13749095CC9B25578A9425ED1917801F0C8
:401F40007F01D67806F00306DFF8C8E04D000D44AF000EEB07054FF0000C85F803C092F802C085F804C092F803C00EF807C097882F8192F90250002D0DDA012E01D10727A2
:401F800000E00D274E000E44B500224E35446F7101266E700CE0012E01D1052700E009274E000E44B5001B4E35446F7100266E70DFF868E00F010EEB07060125B57001FA2B
:401FC00005F529448D00134929440D89C5F307250EF807500D89EDB27570CE88F6B20E4D3D44AE71CE88C6F30726EE71CE88F6B22E71C988C1F30721697108320133DBB200
:40200000A34292D3F8BD00BFEF81FF1FE481FF1F6082FF1FF481FF1F70600040FC5F0040034B1A78034B03EBC2035868704700BFCD81FF1F7C3B000008B5084B1878013880
:40204000C0B2FFF74BFF30B142681279023200EBC203586808BD002008BD00BFEF81FF1F2DE9F047002310E0724D5900CA189600AC190022AA55A270E2702281A27262703A
:4020800034462C4462710133DBB2082BECD940B90AE000226849CA546849CA540133DBB200E00023012BF4D9654B1B7813F0FF0F00F0BD80624B18780138C0B2FFF70EFFDE
:4020C00080464368DB7913F0400F05D05D4A137843F00103137004E05A4A137803F0FE03137098F808704FF0000A01266FE0D8F80C50002467E0AB7803F07F039E425FD178
:40210000314606EB460083004A4803441B899BB2A888834206D206EB460E4FEA8E03454A134418812B784448C35CDBB26878834246D195F802C0DFF8FCE04B000B4498007E
:402140000EEB000383F804C0EB780EF80030EB7803F0030395F90200002813DA012B02D14FF0070901E04FF00D09DFF8C8E04B0003EB010C4FEA8C00704480F80590012199
:40218000417012E0012B02D14FF0050901E04FF00909DFF8A0E04B0003EB010C4FEA8C00704480F8059000214170AB790A2B01D0022B05D1524631462846FFF74BFB82465B
:4021C00008350134E4B2BC4295D30136F6B2082E8DD9D8F80C0000220CE0837803F07F0310F8084B03EB43039900124B19448C720132D2B2BA42F0D3FFF71EFF124B18605E
:40220000002301210FE00B4D4A00501884002C44E380228992B213449BB203F0010213449BB20131C9B20829EDD9FFF705FEBDE8F08700BFF481FF1F6082FF1FD481FF1F5E
:40224000EF81FF1FF181FF1FE881FF1F08B5154B1B7903F07F035A1ED2B2072A20D8590019448A0010490A44917841F0010191700021D170517841F002015170127912F09D
:40228000800F05D01B01094A1A448D23937004E01B01064A1A4489239370FFF7AFFB08BD002008BD00600040F481FF1FFC5F0040274B1B7903F07F035A1ED2B2072A44D801
:4022C00010B5590019448A0022490A44917801F0FE0191700021D1701F4C1801215C01F07F012154517801F0FD015170127912F0800F13D003EB43018A0016490A44527832
:40230000D2B2012A04D1224602440C23937019E01B01114A1A440D23937013E003EB43018A000C490A445278D2B2012A05D11B01094A1A440823937004E01B01064A1A44EE
:4023400009239370FFF75AFB10BD0020704700BF00600040F481FF1FFC5F004010B50E4B1C79E4B20D4B18780138C0B2FFF7B6FD43681B799C4201D9022C0AD8084A135D64
:40238000DBB208490B55044B9B78DBB21355012010BD002010BD00BF00600040EF81FF1F6082FF1FD481FF1F10B59C4B1B78DBB200219B4A118013F0800F00F0AD80974A5A
:4023C0005278D2B20A2A00F27481DFE812F06900720172017201720172010B007201920072019A008D4BDB78DBB2012B09D1FFF717FE42688A4B5A6012221A80FFF740FCE4
:4024000010BD864BDB78DBB2022B13D1834B9878FFF764FD002800F04E814268804B5A605A68D1785A68927842EA01221A80FFF727FC10BD794BDB78DBB2032B05D02CE069
:402440000A7811440133DBB201E000237549734A9278D2B2934203D20A7812F0FF0FEFD16E4B9B7813F0FF0F0BD06C4B9B78DBB26D4A127C934204D16C4C2046FFF7A6FC07
:4024800021460B7813F0FF0F00F017810B78644A13805160FFF7F4FB10BD00F0B9F910BD13F0030317D0022B40F009815C490B805A4B1B7903F07F0303EB43039A005C4BD9
:4024C0001A449278D2B25B4B1A7000225A704B60FFF7D6FB10BD524902230B80564B1A78D2B2544B1A7000225A704B60FFF7C8FB10BD4B4B01221A80504A5A60FFF7C0FBF5
:4025000010BD474A01231380444B1B794C490B445360FFF7B5FB10BD404A5278013A0A2A00F2CF80DFE812F04C00CD009800CD000B00CD00CD00CD001300CD003000374B0A
:402540009B78DBB23F4A1370FFF758FA10BD334B9B7803F0FF041BB1601EC0B2FFF7BEFC04B110B9002C40F0AE80344B1B78DBB29C4206D0314B1C700120334B1870FFF727
:402580006FFDFFF73BFA10BDFFF7E8FE002800F09C80224A1379DBB21279D2B22B490A702B4AD25CD2B22649CB5CDBB29A4204D00122254B1A70FFF7A5FCFFF71FFA10BD9B
:4025C00003F00303012B17D04BB1022B7FD1134B9B7813F0FF0F7CD1FFF76AFE10BD0F4B9B78DBB2012B76D1134A137803F0FD031370FFF703FA10BD084B1B79DBB2012B31
:402600006BD8064B98781B79DBB21249CA5C22EA0002CA54FFF7F2F910BD00BF00600040D881FF1FE43B0000C83C00006882FF1FF481FF1FA481FF1FF181FF1FEF81FF1F85
:402640006082FF1FEE81FF1FEC81FF1FE481FF1FD481FF1F6482FF1F03F00303012B17D04BB1022B3BD1224B9B7813F0FF0F38D1FFF7ECFD10BD1E4B9B78DBB2012B32D189
:402680001C4A137843F002031370FFF7B7F910BD174B1B79DBB2012B27D8154B98781B79DBB21549CA5C22EA0002CA54FFF7A6F910BD002010BD002010BD002010BD0020C3
:4026C00010BD002010BD002010BD002010BD002010BD002010BD002010BD002010BD002010BD002010BD002010BD002010BD00BF00600040F181FF1F6482FF1F044B1B7809
:4027000013F0800F01D0024B5B780020704700BF00600040024B1878C0F38010704700BF8F450040054A137843F0080313701032137843F008031370704700BFA84300406C
:40274000054B1A7802F0FD021A701A7800F0020010431870704700BF2C580040014B1870704700BF835B0040064B1B78C3F3810303F19243063393F83831DBB2024A13708B
:40278000704700BF2C5800400B46004008B5064B1A7802F0F3021A701A7800F00C0010431870FFF7E1FF08BD2C58004010B50024054B1C7001331C702046FFF7E7FF204648
:4027C000FFF7BEFF10BD00BF2C58004008B5074B1B7823B9FFF7EAFF0122044B1A70FFF7A1FF4B20FFF7BAFF08BD00BFA681FF1F0230800803D000BF01380046FCD17047B5
:40280000EFF3108072B6704780F31088704700BF08B5144B1B7803F00303012B02D0022B04D00FE00F4B1B79DBB20CE00D4B1B7903F07F0303EB43039A000B4B1A44937AD9
:40284000DBB200E00023022B07D8084A1268D35C022B04D1FEF762FF08BD002008BD002008BD00BF00600040F481FF1FE881FF1F014B1868704700BF6081FF1F0E4B70B5A2
:402880001E460E4C0025E41AA410A54204D056F8253098470135F8E701F06CFA084B094C1E46E41AA4100025A54204D056F8253098470135F8E770BD803D0000803D0000FE
:4028C000803D0000883D000010B5431E0A44914204D011F8014B03F8014FF8E710BD03460244934202D003F8011BFAE7704700000FB40A4B13B51C6824B1A36913B9204693
:4029000000F072F805AB049AA1682046019300F0C9FA02B0BDE8104004B070476081FF1F0EB400B54FF402719CB0ADF814106FF00041049107914FF6FF711DAB0290069074
:40294000084853F8042BADF81610006802A9019300F08CF9029B00221A701CB05DF804EB03B070476081FF1F014900F0A9B800BF9137000010B504460023036043608360A7
:4029800081814366C281036143618361194608225C30FFF7A4FF054B24626362044BA362044BE362044B236310BD00BF35340000573400008F340000B334000070B568235D
:4029C0004D1E5D430E4605F1740100F097F8044640B1002180E842000C30A06005F16802FFF77DFF204670BD836910B5044633BB8364C3640365124B124A1B68826298428E
:402A000004BF0123836100F01FF86060204600F01BF8A060204600F017F80022E06004216068FFF7A7FF01220921A068FFF7A2FF02221221E068FFF79DFF0123A36110BD39
:402A4000DC3C000069290000F8B51C4B07461E68B36913B93046FFF7C7FF4836B4687368013B04D4B4F90C507DB16834F8E733680BB13668F2E704213846FFF79FFF3060DB
:402A80000028F6D10C233B60F8BD4FF6FF73E3810123A38165662560A560656025616561A5610822294604F15C00FFF718FF6563A563A564E5642046F8BD00BFDC3C0000CE
:402AC0002DE9F8438046894600F14804002694B1A5686768013F0CD4AB89012B07D9B5F90E30013303D029464046C84706436835F0E72468EBE73046BDE8F88370B5CD1C56
:402B000025F0030508350C2D38BF0C25002D064601DBA94202D90C23336046E000F0FDFE234B1C681A462146A1B10B685B1B0ED40B2B03D90B60CC18CD501EE08C420BBF02
:402B400063684B681360636018BF0C4615E00C464968E9E7174C23681BB9304600F05AFC20602946304600F055FC431C18D0C41C24F00304A0420DD12560304600F0CEFED3
:402B800004F10B00231D20F00700C31A0ED05A42E25070BD211A304600F03CFC0130EBD10C233360304600F0B9FE002070BD00BFAC81FF1FA881FF1F2DE9F0478E688246BA
:402BC0009E420C46914698463ED88A8912F4906F3AD02568096902236F1A656905EB450595FBF3F57B1C43449D4238BF1D4653050FD52946FFF782FF064698B13A46216971
:402C0000FFF762FEA38923F4906343F08003A38113E02A4600F0D0FE064670B92169504600F07EFE0C23CAF80030A3894FF0FF3043F04003A381BDE8F08726613E4426600C
:402C400046466561ED1BA560464528BF464649463246206800F046FEA36800209B1BA36023681E442660BDE8F08700002DE9F04F9DB003938B8980461C060D4616460DD5FC
:402C80000B695BB94021FFF739FF2860286118B90C23C8F80030CDE040236B610023099320238DF82930DFF89CB130238DF82A3037463C4614F8013B1BB9B7EB060910D03E
:402CC00003E0252BF9D02746F3E74B46324629464046FFF771FF013000F0A780099B4B4409933B78002B00F0A08000234FF0FF3204930793059206938DF853301A93012658
:402D0000052221784E4800F0DFFD671C049B38B14B4A3C46801A06FA00F018430490EFE7D90644BF20228DF853201A0744BF2B228DF8532022782A2A03D0079A00210A20CE
:402D40000BE0039A111D12680391002A10DA524243F00200079204900BE027463B780134303B092B03D800FB02320121F5E701B107923B782E2B1ED17B782A2B0AD1039B97
:402D800002371A1D1B680392002BB8BF4FF0FF33059310E0002319460593781C0A2407463A780130303A092A03D804FB01210123F5E703B1059103223978224800F084FD50
:402DC00040B14023CBEB000003FA00F0049B013718430490397806221B487E1C8DF8281000F072FD88B1194B33B9039B073323F007030833039314E003AB00932A46144BD1
:402E000004A94046AFF3008007E003AB00932A460F4B04A9404600F0D7F9B0F1FF3F824603D0099B5344099342E7AB895B0601D4099801E04FF0FF301DB0BDE8F08F00BFD4
:402E4000403D0000463D00004A3D000000000000B92B0000936810B4013B002B936008DA9469A34202DBCBB20A2B02D110BC00F025BB1368581C10601970C8B210BC704727
:402E8000F8B506460F461446D518AC4208D03A4614F8011B3046FFF7DDFF431CF5D100E00020F8BD2DE9F04F9DB00C4617460393064618B183690BB9FFF796FD7F4B9C4210
:402EC00001D1746808E07E4B9C4201D1B46803E07C4B9C4208BFF468A38918070CD5236953B10023099320238DF8293030238DF82A30DFF8D4B144E02146304600F044FBA2
:402F00000028EED04FF0FF30D5E0039A111D12680391002A80F28C80524243F002000792049098F800302E2B00F08480032298F80010654800F0C8FC48B14023CBEB0000CC
:402F400003FA00F0049B08F101081843049098F8001006225D4808F101078DF8281000F0B3FC002800F09580594B002B40F08880039B073323F0070308330393099B5344D5
:402F80000993B846454615F8013B1BB9B8EB07090FD003E0252BF9D0A846F3E74B463A4621463046FFF76CFF01307FD0099B4B44099398F80030002B78D000234FF0FF3215
:402FC00004930793059206938DF853301A930127052229783F4800F077FC05F10108049B38B13C4A4546801A07FA00F018430490EEE7D90644BF20228DF853201A0744BFBA
:403000002B228DF853202A782A2A3FF47EAF079A00210A20A84698F800300135303B092B03D800FB02320121F4E700293FF479AF079276E798F801302A2B0BD1039B08F17C
:4030400002081A1D1B680392002BB8BF4FF0FF3305936BE700231946059308F101000A25804698F800200130303A092A03D805FB01210123F4E7002B3FF458AF059155E740
:4030800003AB00932246144B04A93046AFF3008007E003AB009322460F4B04A9304600F093F8B0F1FF3F82467FF468AFA3895B063FF528AF09981DB0BDE8F08FE03C0000C4
:4030C000003D0000203D0000463D00004A3D000000000000403D0000812E00002DE9F04791461F460A698B6806469342B8BF1346C9F8003091F843200C46DDF8208012B1B9
:403100000133C9F800302368990642BFD9F800300233C9F80030256815F0060510D104F1190A07E00123524639463046C04701301AD00135E368D9F800209B1A9D42F1DBF6
:4031400094F843302268003318BF012392060FD5E118302081F843005A1C94F845102244023382F8431003E04FF0FF30BDE8F08704F1430239463046C0470130F4D0226836
:40318000D9F80050E36802F00602042A08BF5D1B2269A3680CBF25EAE57500259342C4BF9B1AED184FF000091A344D4509D00123224639463046C0470130D5D009F10109D8
:4031C000F3E70020BDE8F0872DE9F04317460A7E85B06E2A984606460C460C9B01F1430E00F0AE8011D8632A22D009D8002A00F0BB80582A40F0CA8081F84520834955E0C1
:40320000642A1ED0692A1CD0C0E0732A00F0B08009D86F2A2ED0702A40F0B8800A6842F020020A603EE0752A24D0782A3AD0ADE01A6801F14205111D1960136884F84230D7
:40324000A8E021681A6811F0800F02D0111D196008E011F0400F02F10401196002D0B2F9003000E01368002B3CDA2D225B4284F8432037E021681A6811F0800F02D0111D43
:40328000196007E011F0400F02F10401196001D0138800E01368227E5C496F2A14BF0A2208221BE078225A4984F845202268186812F0800F00F104051D6003D1550601D5EF
:4032C000038800E00368D00744BF42F0200222601BB9226822F0200222601022002084F8430001E049490A226568002DA56008DB206820F0040020602BB9002D7DD175466C
:403300000CE0002B79D07546B3FBF2F002FB1033CB5C05F8013D03460028F5D1082A0BD12368DA0708D5236962689A42DEBF302305F8013C05F1FF35C5EB0E0323612EE0D9
:4033400008681A6810F0800F496903D0101D1860136808E010F0400F02F104001860136801D0198000E0196000232361754616E01A68111D1960156800216268284600F0FC
:40338000A3FA08B1401B6060636804E004F1420584F8422001232361002384F84330CDF800803B4603AA21463046FFF797FE013002D14FF0FF3026E023692A4639463046D5
:4033C000C0470130F5D023689B0710D5002504F1190907E001234A4639463046C0470130E7D00135E368039A9B1A9D42F2DBE068039B9842B8BF184605E00B7804F142054B
:4034000084F842308AE705B0BDE8F083513D0000623D000038B5064C0023054608462360FDF71CF8431C02D1236803B12B6038BD8C82FF1F10B50C46B1F90E1000F0E2FAE5
:403440000028ABBF636DA3891B1823F48053ACBF6365A38110BD2DE9F0411F468B890546DB050C46164605D502230022B1F90E1000F0B8F9A389324623F48053A381B4F9FB
:403480000E103B462846BDE8F04100F06BB810B50C46B1F90E1000F0A5F9431CA38915BF606523F4805343F48053A38118BFA38110BDB1F90E1000F0D5B80000F8B50F465E
:4034C0001446064618B183690BB9FFF78DFA224B9C4201D1746808E0204B9C4201D1B46803E01F4B9C4208BFF468A369A360A3891A0709D523693BB123682069FDB2181A23
:40350000636998420FDB08E02146304600F03CF80028F1D04FF0FF30F8BD2146304600F037F90028F6D1A368013BA36023685A1C22601F706269431C934204D0A389DB07DD
:4035400007D50A2D05D12146304600F021F90028E0D12846F8BD00BFE03C0000003D0000203D000038B5074C054608461146002222601A4600F0ACFA431C02D1236803B1CF
:403580002B6038BD8C82FF1F324B70B51D6806460C4625B1AB6913B92846FFF725FA2E4B9C4201D16C6808E02C4B9C4201D1AC6803E02B4B9C4208BFEC68B4F90C309AB2BA
:4035C00015071DD4D00602D4092232603AE0510712D5616B41B104F14403994202D0304600F09EF900236363A38923F02403A3810023636023692360A38943F00803A38162
:4036000023694BB9A38903F42073B3F5007F03D02146304600F01CF9A28912F0010305D00023A36063695B42A36103E0920758BF6369A36023695BB9B4F90C3003F0800071
:4036400080B230B143F04003A3814FF0FF3070BD002070BD6081FF1FE03C0000003D0000203D000038B5064C002305460846236000F006FA431C02D1236803B12B6038BDA1
:403680008C82FF1F8A892DE9F041054610070C4659D44B68002B02DC0B6C002B17DDE66AAEB102F48052002392B22F682B600AB1606D15E0216A01232846B047411C0FD183
:4036C0002B686BB11D2B01D0162B03D12F600020BDE8F081A38943F04003A381BDE8F081A3895A0705D56368C01A636B0BB1236CC01A00230246E66A216A2846B047431C43
:40370000A38906D129681D2939D8204ACA40D60735D5002262602269D904226004D5421C01D12B6803B96065616B2F600029CED004F14403994202D0284600F0F1F80020E6
:403740006063BDE8F0810F69002FC0D093070E680CBF4B690023C7EB06080F608B6002E00744C0EB0808B8F1000FB0DD43463A46216A2846A66AB0470028F1DCA38943F0E3
:403780004003A3814FF0FF30BDE8F0810100402038B50B6905460C46DBB118B183690BB9FFF722F90C4B9C4201D16C6808E00B4B9C4201D1AC6803E0094B9C4208BFEC689C
:4037C000B4F90C302BB121462846BDE83840FFF759BF002038BD00BFE03C0000003D0000203D000038B5074C054608461146002222601A4600F05CF9431C02D1236803B190
:403800002B6038BD8C82FF1F70B50E46B1F90E1090B0002914461D4606DA00232B60B3891A060ED540230EE001AA00F0FDF80028F3DB029A02F47042A2F500535A425A416C
:403840002A604FF480630020236010B070BD00008B8973B59E0705460C4610D401AB6A46FFF7D2FF009906462846FFF747F968B9B4F90C309A0522D443F00203A38104F10A
:403880004703236023610123636118E00D4BAB62A389206043F08003A381009B20616361019B4BB1B4F90E10284600F0CFF818B1A38943F00103A381A0893043A08102B0C5
:4038C00070BD00BF6929000010B5C9B202449042034605D01C7801308C42F8D1184610BD002010BD884210B501EB020301D8421E0BE09842FBD28118D21AD34204D013F89C
:40390000014D01F8014DF8E710BD994204D011F8014B02F8014FF8E710BD70477047000038B50546002944D051F8043C0C1F002BB8BFE418FFF7F1FF1E4A1368114613B92B
:403940006360146030E0A3420DD92268A018834201BF18685B681218226063600C6023E0A24203D813465A68002AF9D118681918A1420BD12168014458188242196013D1B0
:4039800010685268014419605A600DE002D90C232B6009E021686018824201BF106852680918216062605C602846BDE83840FFF7B5BF38BDAC81FF1FF8B5074615460E463D
:4039C00021B91146BDE8F840FFF798B81AB9FFF7A7FF2846F8BD00F049F885420ED929463846FFF78BF8044650B131462A46FEF76BFF31463846FFF793FF01E03046F8BD82
:403A00002046F8BD38B5074C054608461146002222601A4600F054F8431C02D1236803B12B6038BD8C82FF1F38B5074C0023054608461146236000F02BF8431C02D1236838
:403A400003B12B6038BD00BF8C82FF1F38B5064C002305460846236000F022F8431C02D1236803B12B6038BD8C82FF1F51F8040C0028BEBF091851F8043CC018043870470F
:403A8000024B58221A604FF0FF3070478C82FF1F024B58221A604FF0FF3070478C82FF1F024B58221A600020704700BF8C82FF1F024B58221A604FF0FF3070478C82FF1F4D
:403AC000024B58221A604FF0FF3070478C82FF1F024B58221A604FF0FF3070478C82FF1F000000004772616D733A2020200000004772616D73203D20256420200D0A0000B7
:403B00000A0D00006D56203D20256420200D0A006D563A202020000050510040200000000140000480040140800B00140140000800400140000A004C014000020050014053
:403B40002000000000040140DC0300488000000001112131416153637300000008090101050707040400000030313233343536373839414243444546000000000100000039
:403B8000843B000001000000C83C00000000000000000000010000009C3B000001000000843C000003000000C83B00000000000000000000000000000000000000000000A2
:403BC000C43B0000020A000000008103080002000100820240000A000100030240000A0002030000040309042C0343007900700072006500730073002000530065006D0097
:403C0000690063006F006E0064007500630074006F007200100355005300420055004100520054003803430044004300200043006F006D006D0075006E0069006300610050
:403C4000740069006F006E00200049006E007400650072006600610063006500260343004400430020004400610074006100200049006E0074006500720066006100630000
:403C800065000000090243000201018032090400000102020103052400100104240202052406000105240100010705810308000A09040100020A0000040705820240000034
:403CC00007050302400000001201000202000008B40432F201000102800143000081FF1F000000000000000000000000000000000000000000000000000000000000000011
:403D00000000000000000000000000000000000000000000000000000000000000000000000000000000000000000000000000000000000000000000000000000000000083
:403D4000232D302B2000686C4C00656667454647003031323334353637383941424344454600303132333435363738396162636465660000F8B500BFF8BC08BC9E467047D1
:403D80004D000000D9040000F8B500BFF8BC08BC9E46704729000000A83D0000C880FF1FA000000028010000000000009082FF1F0000E02EC05D00001800000000366E0105
:403DC0000100000000C2010000000800C201000000080000A1200000000002000000000000000000E03C0000003D0000203D000000000000000000000000000000000000B3
:403E0000DA3C00000000000000000000000000000000000000000000000000000000000000000000000000000000000000000000000000000000000000000000000000006C
:403E40000081FF1F000000000000000000000000000000000000000000000000000000000000000000000000000000000000000000000000000000000000000000000000A3
:403E80000000000000000000000000000000000000000000000000000000000000000000000000000000000000000000000000000000000000000000000000000000000002
:403EC00000000000000000000000000000000000000000000000000000000000000000000000000000000000000000000000000000000000000000000000000000000000C2
:403F00000000000000000000000000000000000000000000000000000000000000000000000000000000000000000000000000000000000000000000000000000000000081
:403F40000000000000000000000000000000000000000000000000000000000000000000000000000000000000000000000000000000000000000000000000000000000041
:020000040003F7
:0200000480007A
:40000000014500400352004003640040520001403501014053020140460301400D0401403B0501400406014003070140011501400317014003190140011B01400540014079
:40004000054101400742014007430140024401400145014003460140064701400648014001490140054C0140024D014003500140015101407E02218064047C40810F837291
:40008000843800030104020C0401050E070109060A030C03140C150F180F190E1B011C0820022109230624042701280F29022C0C2E03300F350737083A023B203F40580495
:4000C00059045C115F0181018306870C88108B088D109101930E960398099A109C0C9E11A01CA10CA202A303A814AC10AE0CAF03B21FB310B70FBB80BF04C041C105C6CEB8
:40010000C70BC81CC9FFCAFFCBFFCEF0CF44D00CD401D804D904DA04DB04DC11DD11DF01E6C0EA40EB020020018A020404100B1A0E120F04100411411308160817411840D2
:4001400019021E10200422402604270129122A042C41300431083210360138043A023B1A3C103D223E803F044421450146114F4056985C225E486402668080048302C04F22
:40018000C2E7C4DFCA97CC86CEF7D090D210D6F0000102140305061807080A080E05110A13041402150317041C011D031E0C1F0C201821032205230426013001310F34027D
:4001C000361C3A803B023E114006464049FF4A074BFF4C404D204EF04F055008580459045A045C115D015F01604061A86240632080508104822884248501864889018C02B2
:40020000900391019C089D029E14A201A302A47CA87CAC03AD02B060B301B403B506B61CB820B920BE10D602D710D804D904DB04DC11DD10DF01010A03010494060107402D
:400240000A010BC00E1211141202130114401610170519821A011B101D401E421F60202421042304250126022740284029402F4030023340374539143B013F054C404F2119
:4002800055105A805D03680269147110720A731A905092909501966097549A109B019C409D989E039F48A302A410A519A601A940AA10C0FDC2A9C43FCA89CCD9CEC7D220CB
:4002C000D60887028D0295029F01AB01AF02B102B501B902BF10D904DC10DF01018A03040A681042131A180119111A042108229D23042404278029102A092B022C022F0A16
:4003000030403108321136083780384239083B103C403F0440414104424443044A0852015308590160046280904091089310962099829A089B0A9D08A302A508AB20C00F2F
:40034000C20EC40FCA3FCC5FCE5FD00FD204D601D80C39803F4059045F012402A801A908EC10B401EA02EE0AE840EA02EE0AEC10338136406308CC70D84052089F01A6402E
:40038000A784D42003209F01A648A780AB04C010EE2012089F01A648A780AB20C440EC207C20DE019C2045089C20D00108080B040F409C20A508C20E2510AE40AF81C8201C
:4003C000EA40EE50B510A508AC08AF44B420E802B508EC08000208020A02002A02012040010020060018070003074018070018011C1F03001F1900040010000010000020E6
:40040000080800001800002018190702034000001C1F6020000000280000404043060200010000CE30FFFFFF62A0F0410C00000018000000040404041111000100000000C3
:4004400000004002001030100010101200000000000000000000000000000000000404000400830004000000000000004000000000000000C0000000000B0B00000000000F
:40048000007F7F0000000000000000000000800080000080800080000000000025001801000000000000000000000000000000000000000000000000000000000000000080
:4004C00000000000000000000000000000000000000000000000000000000000000000000000000000000000000000000000000000000000000000000000000000000000FC
:4005000000000000000000000000000000000000000000000000000000000000000000000000000000000000000000000000000000000000000000000000000000000000BB
:40054000000000000000000000000000000000000000000000000000000000000000000000000000000000000000000000000000000000000000000000000000000000007B
:40058000000000000000000000000000000000000000000000000000000000000000000000000000000000000000000000000000000000000000000000000000000000003B
:0200000490006A
:0400000000004005B7
:0200000490105A
:04000000BC90ACAF55
:0200000490303A
:020000005C7F23
:0200000490402A
:4000000000000000000000000000000000000000000000000000000000000000000000000000000000000000000000000000000000000000000000000000000000000000C0
:400040000000000000000000000000000000000000000000000000000000000000000000000000000000000000000000000000000000000000000000000000000000000080
:400080000000000000000000000000000000000000000000000000000000000000000000000000000000000000000000000000000000000000000000000000000000000040
:4000C0000000000000000000000000000000000000000000000000000000000000000000000000000000000000000000000000000000000000000000000000000000000000
:0200000490501A
:0C00000000012E12306900012E298CE84E
:00000001FF